:020000040000FA
:10000000E80E0020D5000000DD000000DF00000049
:1000100000000000000000000000000000000000E0
:10002000000000000000000000000000E1000000EF
:100030000000000000000000E3000000E5000000F8
:10004000519D00000BC20000C5A10000D7A1000017
:1000500081A10000A3A1000075AA00005DAB000013
:100060000FBC000067BC0000C1BC00001BBD00004D
:1000700035C3000055C30000E7000000E7000000A2
:10008000E7000000E7000000E7000000E7000000D4
:10009000E70000000000000000000000E700000092
:1000A000E7000000E7000000E7000000E7000000B4
:1000B000D19E0000ABA9000000000000C9B4000000
:1000C000034885460CF070FC00480047E91B00001F
:1000D000E80E00200448804704480047FEE7FEE79A
:1000E000FEE7FEE7FEE7FEE75D010000C10000005D
:1000F00070B51B4D28694007400F052800D9042022
:10010000022803D017498000085817E0286A000425
:10011000840F012C00D9641E286A000301D51248FF
:1001200000E01248296AC905C90D891C4843296A9B
:100130008904C90E891C0CF0E9FBE040A969090794
:10014000090F491C0CF0E2FB064C083C20600849F2
:100150004A1080180CF0DAFB606070BD7047000038
:10016000000200500800002000805101001BB70071
:1001700040420F00FFB581B005460E461746164CAB
:100180000120A840C0B20AF0EAFB01200AF0FAFB05
:1001900000200AF0EBFB0AF034FC01E0641E15D3EA
:1001A0000AF03BFC0028F9D0E8B20AF03EFC0499C2
:1001B00088420ED90A99002906D031683A68891A0E
:1001C000081830600009386005B0F0BD0020C04359
:1001D000FAE70020C043F7E7F401000038B56B4CA4
:1001E00059202060162020608820206017200AF007
:1001F000E7F818200AF0E4F819200AF0E1F81B20CB
:100200000AF0DEF81C200AF0DBF81D200AF0D8F80E
:100210001020002200900223012110460AF03CFB2E
:100220000020206038BD38B50120594A00900023D5
:10023000111F0520FFF79EFF411C08D0554C206080
:10024000554948437D21C9000CF060FB606038BD12
:1002500038B54F4A0120083200900023111F0620B4
:10026000FFF788FF411C09D04A4CA0604A492C3155
:1002700048437D21C9000CF049FBE06038BD38B52A
:10028000434A0120103200900023111F0420FFF781
:1002900071FF411C09D03F4C20613F492C3148433C
:1002A0007D21C9000CF032FB606138BD38B5384A99
:1002B0000120183200900023111F0220FFF75AFF7F
:1002C000411C09D0334CA06133492C3148437D2176
:1002D000C9000CF01BFBE06138BD38B52C4A012089
:1002E000002320320090111F1846FFF743FF411CE6
:1002F00008D0284C2062294948437D21C9000CF0D0
:1003000005FB606238BD38B5214A01202832002340
:10031000111F0090FFF72EFF411C08D01D4CA0625A
:100320001E4948437D21C9000CF0F0FAE06238BD57
:1003300070B5174C083C2078411C2170002806D06D
:10034000012807D00025022807D0257070BDFFF7CF
:100350006AFF70BDFFF793FF70BDFFF7D4FF2570F4
:1003600070BD70B50A4C083C6078411C6170002873
:1003700004D00025012804D0657070BDFFF768FF28
:1003800070BDFFF7AAFF657070BD0000000100504E
:1003900028000020280300204C090000250300004D
:1003A000FB48C0687047FA4880687047F848406862
:1003B0007047F749C8607047F54988607047F4494D
:1003C0004860704770B50446F14D226800212869E5
:1003D00013000CF026FB08F205333D95F1F0EF32E7
:1003E000242001F0B9FC002827D12420616801F005
:1003F000AFFC0CF0A1FAFC210CF088FA08460321AE
:100400000CF084FA29788142F3D02870E04A143243
:1004100041004318D05C64214843000AFFF7CFFF36
:100420009A18507864214843000AFFF7C5FF907876
:1004300064214843000AFFF7BCFFF1E16069FFF760
:10044000BEFFA069FFF7B8FFE069FFF7B2FFE7E181
:1004500000280AD001281DD0022836D0E0680128E3
:10046000EBD9401EE0602961DAE10020FFF7A7FF29
:100470000020FFF7A1FF0020FFF79BFF2420616809
:1004800001F066FC2520A16801F062FC2869401C8F
:100490002861C5E1242001F05FFC002809D06069D3
:1004A000FFF78DFFA069FFF787FFE069FFF781FF86
:1004B000B6E12420616801F04BFC2520A16801F021
:1004C00047FC2869401C2861AAE1252001F044FC72
:1004D000002809D00020FFF772FF0020FFF76CFF13
:1004E0000020FFF766FF9BE12420616801F030FCEB
:1004F0002520A16801F02CFC2869401C28618FE1AF
:1005000003000CF08EFA0504112B456370000020E7
:10051000FFF755FF0020FFF74FFF0020FFF749FFCF
:100520002869401C28617BE1242001F015FC00288B
:100530000CD00020FFF743FF0020FFF73DFF002015
:10054000FFF737FF6320FFF73AFF69E12420616876
:1005500001F0FEFB2869401C286161E1242001F0C4
:10056000FBFB00280CD00020FFF729FF0020FFF73D
:1005700023FF0020FFF71DFF6320FFF71DFF4FE162
:100580002420616801F0E4FB2869401C286147E1F0
:10059000242001F0E1FB002810D00020FFF70FFF1E
:1005A0000020FFF709FF0020FFF703FF6320FFF79C
:1005B00000FF35E150E01DE080E026E12420616885
:1005C00001F0C6FB2869401C286129E10020FFF7E3
:1005D000F6FE0020FFF7F0FE0020FFF7EAFE286994
:1005E000401C28611CE1E068012888D9401EE060B9
:1005F000296115E1002806D0E068012893D9401E42
:10060000E06029610CE1242001F0A6FB00288AD1DA
:10061000206963281CD22420616801F099FB2569B8
:100620006D1C25616069642168430CF06FF9FFF768
:10063000C6FEA069642168430CF068F9FFF7BCFEB0
:10064000E069642168430CF061F9FFF7B2FEE7E06E
:100650002869401C2861E3E0002806D0E0680128F2
:100660008DD9401EE0602961DAE0242001F074FB9E
:10067000002884D1206900281CD02420616801F062
:1006800067FB25696D1E25616069642168430CF074
:100690003DF9FFF794FEA069642168430CF036F938
:1006A000FFF78AFEE069642168430CF02FF9FFF739
:1006B00080FEB5E02869401C2861B1E06322030098
:1006C0000CF0AFF906042038516B849C2069632834
:1006D00014D2242001F040FB00280ED124206168B0
:1006E00001F036FB2069401C2061FFF768FE002006
:1006F000FFF762FE6320FFF75CFE91E022610120BC
:1007000028618DE02069002811D0242001F024FB0D
:1007100000280BD12420616801F01AFB6320FFF749
:100720004EFE2069401E2061FFF743FE78E0022064
:10073000286175E02069632811D2242001F00CFBA8
:1007400000286DD12420616801F002FB6320FFF7CF
:1007500036FE2069401C2061FFF72EFE60E022611A
:10076000032028615CE02069002813D0242001F0D8
:10077000F3FA002854D12420616801F0E9FA2069D5
:10078000401E2061FFF71BFE6320FFF715FE47E0C8
:10079000540000200420286142E02069632811D21F
:1007A000242001F0D9FA00283AD12420616801F010
:1007B000CFFA6320FFF700FE2069401C2061FFF79D
:1007C000F8FD2DE022610520286129E0206900283C
:1007D00011D0242001F0C0FA002821D12420616822
:1007E00001F0B6FA2069401E2061FFF7E5FD6320A5
:1007F000FFF7DFFD14E00620286111E0E068012822
:100800000ED9401EE06029610AE0216129610020C3
:10081000FFF7D5FD0020FFF7CFFD0020FFF7C9FD52
:1008200002F09FF8012809D0002001F0D2FB00203F
:1008300001F008FC002001F03DFC70BDFFF7B6FDA3
:1008400001F0C7FBFFF7AFFD01F0FCFBFFF7A8FDD0
:1008500001F030FC70BD0149086170475400002070
:1008600010B5002001F0B5FB002001F0EBFB0020EB
:1008700001F020FC10BD10B5874C0422226061609D
:10088000A160E06063206061A061E061242001F06C
:100890005FFA2520A16801F05BFA0020FFF7DBFF7B
:1008A0002046FFF78FFD10BD10B57B4905220A6079
:1008B000486088607948C8600021242001F048FA27
:1008C0000021252001F044FA0020FFF7C4FF724800
:1008D000FFF778FD10BD10B56F4901220A6048602E
:1008E00088606E48C8600021242001F031FA0021A0
:1008F000252001F02DFA0020FFF7ADFF6648FFF735
:1009000061FD10BD70B5644C062525606360A36071
:100910000125E56064256843000A60616420414365
:10092000080AA06164204243100AE06119462420AD
:1009300001F00EFA2520A16801F00AFA0020FFF765
:100940008AFF2046FFF73EFD70BD002806D05449BF
:10095000012810D0022813D1C868A5E750484038B4
:10096000C16B4A008B18816B5B1CCAB2416B006B78
:10097000C9B2C0B2C6E788687821401C4843AAE7DC
:10098000704710B5444C002020606061A061E061B8
:100990002420616801F0DCF92520A16801F0D8F974
:1009A0000020FFF758FF2046FFF70CFD10BD70B583
:1009B0000D46394C0721216059086160A16001236F
:1009C000E36064235843000A606164204543280AB9
:1009D000A06164204243100AE061242001F0B8F9CC
:1009E0002520A16801F0B4F90020FFF734FF20466C
:1009F000FFF7E8FC70BD002804D0012801D00228D0
:100A00000BD1BEE726484038816BC36BCAB2416B3D
:100A1000006BDB1CC9B2C0B2C9E7704710B51E4CF1
:100A2000022323600123E36064235843000A6061CA
:100A300064204143080AA06164204243100AE06137
:100A40002420616801F084F92520A16801F080F973
:100A50000020FFF700FF2046FFF7B4FC10BD10B5E3
:100A60000D4C03202060FA216160A1600F20E0603E
:100A7000632060610020A061E061242001F068F93A
:100A80002520A16801F064F90020FFF7E4FE20466C
:100A9000FFF798FC10BD000058030020102700004D
:100AA000FC0B002070B5054600240821002009F049
:100AB000E0FB280604D50B21002009F0BFFB03E072
:100AC0000B21002009F0D5FB0A21002009F0B6FB1C
:100AD000012001F067FB0A21002009F0CAFB012078
:100AE00001F060FB6806050E641C082CE1D30821A8
:100AF000002009F0A3FB70BD10B5044604210120BD
:100B000009F0B7FBE0B2FFF7CDFF10BD10B504460A
:100B10000421012009F092FBE0B2FFF7C3FF10BDF2
:100B200010B50C46B030FFF7E7FF20091230FFF791
:100B3000E3FF2007000FFFF7DFFF10BDF7B50E46FC
:100B4000002500F0D4F9002801D0771C10E0022025
:100B5000FEBD30460099FFF7E3FF002428460299C6
:100B60006D1C085CFFF7D2FF641C052CF6D3761CC5
:100B7000BE42EED30020FEBDF7B50E46002500F0C4
:100B8000B6F9002801D0B71C10E00220FEBD3046A7
:100B90000099FFF7C5FF0024284602996D1C085CE8
:100BA000FFF7B4FF641C052CF6D3761CBE42EED3CF
:100BB0000020FEBDF7B50E46002500F098F900288C
:100BC00001D0B71C10E00220FEBD30460099FFF7AF
:100BD000A7FF0024284602996D1C085CFFF796FFCA
:100BE000641C0A2CF6D3761CBE42EED30020FEBD58
:100BF000F7B50E46002500F07AF9002801D0F71C61
:100C000010E00220FEBD30460099FFF789FF002466
:100C1000284602996D1C085CFFF778FF641C0E2CB7
:100C2000F6D3761CBE42EED30020FEBDFFB581B0E8
:100C30000F461646002500F05AF9002812D102206E
:100C400005B0F0BD30460199FFF76AFF019C06E050
:100C500028460A996D1C085CFFF758FF641CBC42CB
:100C6000F6D3761C04988642ECD30020E8E7FFB563
:100C700081B00646174600240091002500F037F9A0
:100C8000002807D00498002813D0012822D0052876
:100C900034D130E00220D3E7385D2038810041189C
:100CA00017480A1830460099FFF748FFF61D6D1CDB
:100CB000641C785D0A28EFD120E0385D0A212038D5
:100CC00048431049421830460099FFF755FFF61D7A
:100CD0006D1C641C785D0A28EFD10FE0385D14218B
:100CE000203848430849421830460099FFF762FF10
:100CF0000A366D1C641C785D0A28EFD100209FE73E
:100D00000EE2000035E3000083E5000010B5002886
:100D10000ED001280BD1A120FFF7EEFEA820FFF78F
:100D2000EBFE2F20FFF7E8FEC820FFF7E5FE10BD21
:100D3000A020FFF7E1FEA820FFF7DEFE2F20FFF73F
:100D4000DBFEC020FFF7D8FE10BD10B5AE20FFF7C8
:100D5000D3FE0020FFF7D0FE1020FFF7CDFE40208D
:100D6000FFF7CAFEB020FFF7C7FE8120FFF7C4FEE1
:100D70008020FFF7C1FEA020FFF7BEFEA620FFF7F0
:100D8000BBFEA820FFF7B8FE2F20FFF7B5FEC0205E
:100D9000FFF7B2FED320FFF7AFFE0020FFF7ACFE57
:100DA000D520FFF7A9FE8020FFF7A6FED920FFF788
:100DB000A3FE2220FFF7A0FEDA20FFF79DFE1220FF
:100DC000FFF79AFEDB20FFF797FE3020FFF794FE37
:100DD0008D20FFF791FE9520FFF78EFEAF20FFF7E5
:100DE0008BFE10BD10B503242402204601F0DAF971
:100DF0000521012009F03DFA204601F0D3F9052133
:100E0000012009F01BFA204601F0CCF910BD10B505
:100E100001220521104609F0E7F901220A210020EC
:100E200009F0E2F901220B21002009F0DDF901228D
:100E30000821002009F0D8F901220421104609F008
:100E4000D3F9FFF7CFFFFFF780FF2A488069C0B2D0
:100E5000FFF75CFF10BD70B500252846B030FFF7E6
:100E60004BFE1220FFF748FE0020FFF745FE00244E
:100E70000020FFF74BFE641C402CF9D36D1C062D9F
:100E8000EBD370BDFFB581B007460E4615460CE0AA
:100E900039462846FFF744FE3C4603E00020FFF7B2
:100EA00035FE641CB442F9D36D1C04988542EFD31F
:100EB00005B0F0BD10B5044607F0BFFF60436421E4
:100EC0000BF024FDC4B2642C00D964241E2C00D283
:100ED0001E248120FFF710FE2046FFF70DFE10BDF7
:100EE00010B5FFF709FE10BD0349087070470248AE
:100EF000007870473C0B0020640100203EB5134C85
:100F00005920206016202060882020602A2009F0C7
:100F100057FA0F48009003206946087100254D716B
:100F20008D71CD7100200BF07BFA0A4A012100205F
:100F30000BF07EFB03220021022009F055F900216D
:100F4000022009F07BF925603EBD00000001005041
:100F500000C20100590F000010B51422FF49002003
:100F60000BF0D1FB10BDFE4908707047FC490871B9
:100F70007047FB480078704710B5FFF7FAFF00286C
:100F800005D001280ED00020FFF7EDFF10BD002195
:100F9000022009F053F90020FFF7E8FFF149002093
:100FA000486010BD0021022009F063F910BDEC4932
:100FB00088707047F8B50024EB4EE94F3546FF3591
:100FC000F1354D206102800209188022E64801F0C7
:100FD0001EF9FE60F868C17B962907D0A84207D3A6
:100FE000FE60641C5A2CECD30020F8BD0120F8BD33
:100FF0001030F860EEE7F0B58FB000200222DB4B36
:10100000D64919600E91097800297ED00B020E99FD
:10101000D24C4978257A0B43A178E4780D942402C8
:101020000C430C94AC467D24E400CE4D4C43D04F91
:1010300080350B942C46DE1B4034BB4266D028DC46
:10104000CC4FDE1BBB427ED012DCCB4A981A9342B7
:101050007AD008DCC948181877D0C94A80182CD033
:10106000012831D131E0052870D00628F9D136E1C8
:10107000BA4B0C2E9B7B6AD006DC012E68D0072E63
:1010800067D00B2EEDD14DE10D2E7DD00E2EE8D187
:10109000B8E1B24A3300177B12790BF0C2FC1A1583
:1010A000F1151515151515F0EFEEEDECEBEAE9E885
:1010B000E7151515151515E6E515FF29D1D10322FC
:1010C000B04900200BF055FB28E26046FF28FBD119
:1010D000A3480022427182710120FFF747FFA34815
:1010E0009F4E0368303698783070D97871700A91C5
:1010F0001979B1708E465979F1708C4699793171B0
:10110000DB79737101266F4601E00BE281E13E71EC
:101110007A7102930391614604910592714606919A
:101120000A99079198494018089008AF3A7101A9A7
:1011300000200AF0DBFB002804D0032293490020A2
:101140000BF017FB06E0D1E06BE0E2E170E03EE17E
:10115000CEE0DEE08E49E0690870206A48708D4F6D
:10116000AB213868017013214170FF2181730C227B
:10117000874989480BF0F2FB87490F22891E00201E
:101180000BF0F7FA032000E032E101F013F86421DC
:10119000686A0BF0BBFB7E4E0C3E30707F4800212E
:1011A000406A08F02DFD70702068B070286BF070F8
:1011B000686B3071A86B70717949E86A0BF0A6FB17
:1011C000B0717D25ED002946606A0BF09FFBF07140
:1011D0002946A0690BF09AFB3072A0207072C820DB
:1011E000B0720020F0723968AB200870FFF7E2FEA1
:1011F000002803D039680C20487002E038680B21C1
:1012000041703968FF20887361490C220C396248AB
:101210000BF0A4FB60490F22891E00200BF0A9FAF5
:101220007CE1FF29FCD11920E96A00F091FD75E10C
:101230004A48C079FF28F3D14A4901204860C86074
:101240004A4E0C9807F003FE306842790179120289
:1012500011430A2251438079286000282AD00128AE
:101260000FD0022826D11AE04CE144E13BE133E102
:101270002BE123E115E10CE102E1FBE0F8E0E1E024
:10128000CAE021637D2292014648914200D9206341
:101290007D22216B520191420CD220630AE06163EE
:1012A000414A4248914200D960634149626B8A4297
:1012B00000D2606303F0F2FEFFF7CDFD00211120A4
:1012C00000F046FD0021122000F042FD0021132015
:1012D00000F03EFD0021142000F03AFD1EE10D98C3
:1012E000FF289DD1216003F0D9FE17E1FF2915E108
:1012F0000D98FF2894D10B98A0612E4A2E49904258
:1013000000D9A161A069884200D2A16103F0C6FEA4
:1013100004E10D98FF2804D121484143E96203F01C
:10132000BDFEFBE0FF2B51D10E4B01215960002186
:10133000D960174B203311460E9C521C615C195426
:10134000401C0C28F7D3FFF786FD0021112000F088
:10135000FFFC0021122000F0FBFC2FE078030020AE
:10136000700100203C0B0020A00300206801002039
:1013700018AA000009AA000002AA0000FF77FFFFD8
:1013800001DEFFFFC7EB0000D0070000C4EB000048
:10139000BC0700206C0100208E03002028030020E1
:1013A00060EA0000701700007C150000AC0D000022
:1013B000DC050000400D0300007102000021132035
:1013C00000F0C6FC0021142000F0C2FCA6E0FF2BB8
:1013D0000DD1F94901234B600023CB60F74B114637
:1013E0000E9C521C615C1954401C0C28F7D395E0EC
:1013F0006046FF2805D1F249012048718871FFF746
:10140000D6FD8BE06046FF2802D1ED4901208871AE
:1014100084E06046FF2881E0FF2F7FD1E64C012366
:10142000A360E64B163B19700D99597005219A700F
:101430000A460E9C491CA25C1C18E270401C07283E
:10144000F6D36BE0FF2F69D1DB4C0123A360DB4BAC
:10145000203B19700D99597005219A700A460E9C0F
:10146000491CA25C1C18E270401C0728F6D355E00A
:10147000FF2953E0FF2A51D10C9804F048FF4DE0BA
:10148000FF294BD10020FFF771FDCB4900204860B8
:1014900044E00D98FF2841D10B98606203F0FEFDF7
:1014A0003CE0C8484079FF2838D129630D9868632B
:1014B000AA630020606003F0F1FD2FE00D98FF2883
:1014C0002CD1616003F0EAFD28E0FF2926D101203C
:1014D000E06103F0E3FD21E0FF291FD10020E0617E
:1014E00003F0DCFD1AE00D98FF2817D1B248016126
:1014F00003F0D4FD12E0FF2910D10120206203F097
:10150000CDFD0BE0FF2909D10020206203F0C6FDCC
:1015100004E0FF2902D10020FFF728FD1421A9488B
:101520000BF035FA00200FB0F0BDA5488078704769
:10153000F8B501F07DF905284DD0FFF7F6FF4D25F0
:10154000AD02A14E9E4C002810D00020FFF72FFDC9
:101550009A48012149020C300BF019FAA069802247
:1015600040024119304600F052FE266160790028A1
:1015700061D0A0790027002853D0A77193491A2081
:1015800000F0E6FB00F0F8FD2169C87B962825D025
:101590008A485838814241D32661606900280CD0BE
:1015A000A06904214002401900F052FEA069802287
:1015B00040024119844800F009FEA069401CA06166
:1015C0005A2822D3A76167710322814900200BF0BA
:1015D000D0F80020F8BD0020C043F8BD2069C773D3
:1015E000012060617B48AB220068027008224270D3
:1015F000FF2242740F2278480BF0B0F9764912228C
:10160000891E00200BF0B5F815E040024119802238
:101610006D4800F0FCFD26616761B3E71031216180
:10162000B0E71A2000F098FB002804D1677103226C
:101630006A490BF09EF80020F8BD61484079704778
:101640005F4800797047F0B589B0074601F085F929
:101650000024E443012806D003F09EF8002804D0BB
:10166000204609B0F0BD2046FBE7FFF7E9FF002860
:1016700003D0FFF7E2FF002845D04F4E504C3046D4
:10168000F1688030012940D081690A0AA16A0A7094
:1016900082694A70F16AA56A090AA970F16AE9705B
:1016A000406A64210BF032F928710E2000F054FBDF
:1016B0004B497D25081AED0029460BF027F9A16A50
:1016C000487148480021406A08F09AFAA16A887176
:1016D000694600200AF015F80798D021411AA06A3F
:1016E000C17106990172059941720399817202993B
:1016F000C172019901739621C173F06F00280BD05C
:10170000012821D029E02046ABE7C1690A0AA16A75
:101710000A70C2694A70BDE701F01CF9E121C900F5
:10172000484329460BF0F2F8A16A2030487301F0D3
:1017300011F9E121C900484329460BF0E7F82030B0
:10174000A16A000A887308E001F004F9A16A4873ED
:1017500001F000F9A16A000A88734D25AD02002F3F
:1017600002D0012F52D144E01022A16AA0680BF0F0
:10177000F5F81D49A068884238D310480C30A060A5
:10178000E06A04214002401900F062FDE06A802214
:101790004002411909480C3000F018FD07480121AA
:1017A00049020C300BF0F3F8E06A401CE0625A2862
:1017B0002CD30020E06229E03C0B0020E807002049
:1017C0007001002078030020A0050020983A000056
:1017D000B8EB00006C0100208E030020BBEB000082
:1017E000A82F000028030020E40900201030A0608A
:1017F0000CE0E06A04214002401900F029FDE06A93
:10180000802240024119D84800F0E0FC002028E77F
:10181000F0B589B001F0A1F80024E443012805D017
:1018200002F0BAFF002803D020461AE7204618E746
:1018300000F0FEFFCD4C052803D0CD4820620020EB
:101840000FE70E2000F088FACA4F7D21381AC90030
:101850000BF05CF86062216A8142F0D02062C64DD4
:101860002846E968803001291CD081690A0AE169AB
:101870000A7082694A70E96AE669090AB170E96A20
:10188000F170406A64210BF041F830710E2000F0D5
:1018900063FA7D26381AF600B0420AD2E1690020C8
:1018A00048710FE0C1690A0AE1690A70C2694A70A9
:1018B000E1E70E2000F050FA381A31460BF026F816
:1018C000E1694871AD480021406A08F099F9E16981
:1018D00088716946002009F014FF0798D021411A49
:1018E000E069C1710699017205994172039981728B
:1018F0000299C172019901730021C173E86F002838
:1019000002D0012818D020E001F024F8E121C9001C
:10191000484331460AF0FAFFE1692030487301F08C
:1019200019F8E121C900484331460AF0EFFF2030A1
:10193000E169000A887308E001F00CF8E169487376
:1019400001F008F8E169000A88738D48AB2100684E
:10195000017001214170FF21417483490F225439E4
:1019600088480AF0FBFF87491222891E00200AF0EE
:1019700000FF606A002800D161E70020FFF763FEE6
:101980005DE77A494870704770B5062804D9012090
:10199000FFF7F7FF002070BD7349734A2C390D180B
:1019A000E978223A09021418E07801430BD000F0DC
:1019B00042FFE978E27809021143884208D3012006
:1019C000FFF7DFFF07E00020FFF7DBFF002070BD1F
:1019D0000020FFF7D6FF002070BD6749C031C86204
:1019E00070476548C030C06AC0B27047F0B589B072
:1019F0006946002009F085FE0698C6B20598C4B273
:101A0000FFF7EFFF00275C4DA04206D02046FFF70E
:101A1000E4FF2F62002004F07AFCA868002804D0BC
:101A2000012816D0AF6000201BE6E86900280CD022
:101A300000F001FFE969884203D30120FFF7A1FF0D
:101A4000F1E70020FFF79DFFEDE70020FFF799FF8A
:101A5000E9E7454D2C3D6978B14205D1A878201AB7
:101A6000C0B2FFF791FFDEE71F201E220B000AF035
:101A7000D8FF0D08091030373E454C535A61686F46
:101A80000800D0E7A978401A0019C0B2FFF77CFF20
:101A9000C9E72E78B00705D1642130460AF036FF39
:101AA00000290ED1FF21913130460AF02FFF002985
:101AB00007D0A8781C21081A0019C0B2FFF764FFEC
:101AC000B1E7A8781D21081A0019C0B2FFF75CFF22
:101AD000A9E7A978401A0019C0B2FFF755FFA2E79D
:101AE000A878101A0019C0B2FFF74EFF9BE7A9783B
:101AF000401A0019C0B2FFF747FF94E7A878101A00
:101B00000019C0B2FFF740FF8DE7A978401A00190D
:101B1000C0B2FFF739FF86E7A978401A0019C0B2B2
:101B2000FFF732FF7FE7A878101A0019C0B2FFF75D
:101B30002BFF78E7A978401A0019C0B2FFF724FFFD
:101B400071E7A878101A0019C0B2FFF71DFF6AE705
:101B5000A978401A0019C0B2FFF716FF63E700200A
:101B60007047024840787047F40700207001002059
:101B7000FF0F0000A82F00003C0B002028030020CE
:101B80006C0100208E03002010B556490878C04330
:101B9000C0B20870002804D00821012008F04EFBD4
:101BA00010BD0821012008F064FB10BD10B500F045
:101BB000F1F8FEF755FE00F09DF8FFF728F907F061
:101BC0005AF900F045F900F071F9FFF797F9FFF7BE
:101BD000C6FF00F093F900F0D3F900F00AFA00F024
:101BE00041FAFEF7FBFA10BDFFF7E0FF00F04DFBF6
:101BF00000F062FB06F003FD00F070FA06F041FD14
:101C000008F040F800F097FA0020FFF7ACF93649E9
:101C1000102000F09DF8FF212D310120FEF72BFE52
:101C2000022000F099F8002805D10121022000F0DF
:101C30008FF8FEF796FB012000F08EF800280AD1FD
:101C40001421012000F084F807F069FB00F094FAF9
:101C500026480121C161002000F07EF8002804D14F
:101C6000022100F075F806F011FE1B2000F074F858
:101C7000002805D132211B2000F06AF8FFF7BBF9DC
:101C80001D2000F069F8002805D132211D2000F048
:101C90005FF8FFF7BDFD1C2000F05EF8002805D1BD
:101CA00032211C2000F054F8FFF742FC042000F021
:101CB00053F8002806D17D21C900042000F048F81F
:101CC000FFF794FE232000F047F8002806D10521F5
:101CD000232000F03DF80648FEF774FBFFF754FFA1
:101CE0009EE70000A6010020DC050000FC0B0020A0
:101CF0005803002010B50A4C59202060162020609F
:101D0000882020600121002008F0B6F8054808F07E
:101D1000E6F9054808F0A5F90020206010BD000094
:101D2000000100508813000080F0FA0210B5174936
:101D30000878C043C0B20870002804D009210020F0
:101D400008F07CFA10BD0921002008F092FA10BDBD
:101D50000F4A8000115070470D49800008587047A5
:101D600000210A4A5078401CC0B250700A280CD397
:101D70000020507006480268002A01D0521E0260FE
:101D8000001D491C4529F6D3D0E77047A701002064
:101D9000040A002010B5284C59202060162020602D
:101DA0008820206001220421022008F01DFA234827
:101DB000816810229143816001221146022008F0BF
:101DC00013FA0121022008F054FA01220321022013
:101DD00008F00AFA0321022008F04BFA012202213E
:101DE000104608F001FA0221012008F042FA01220F
:101DF0000721022008F0F8F90721022008F039FA3B
:101E000002210122084608F0EFF90221084608F0F5
:101E100030FA03220921002008F0E6F90322082104
:101E2000012008F0E1F903220821012008F0DCF983
:101E30000020206010BD00000001005080400050D4
:101E400010B5FFF78DFF13480168491C016010BDF4
:101E500010B5114C59202060162020608820206089
:101E600009F088FF0721022007F092FF01220B49A9
:101E7000002009F086FF0123094A022100200AF010
:101E8000F6F800200AF085F900200AF0A7F90020F2
:101E9000206010BD1C00002000010050204E0000FA
:101EA000411E000010B5FEF743FA10BD10B5104CEE
:101EB00059202060162020608820206009F05AFFF9
:101EC0000721042007F064FF01220A49022009F0DB
:101ED00058FF02210123084A08460AF0C8F80220E8
:101EE0000AF057F902200AF079F90020206010BDAD
:101EF00000010050204E0000A51E00007FB51E4CC2
:101F000059202060162020608820206008F09AFE6A
:101F1000342008F055FA0221002009F0A2FA01202D
:101F20006A4610706421517000259570D570134970
:101F30000191029503906946002008F058FF0121A5
:101F4000002009F048FA0121002008F0A9FE2560D0
:101F50007FBD1FB55F2800D95F2001216A4611703F
:101F60006422101A6A465070044801900391694631
:101F7000002008F03CFF1FBD00010050400D030091
:101F80007FB5544C592020601620206088202060A6
:101F9000362008F015FA0221084609F062FA0120FD
:101FA0006A4610706421517000259570D5704A49B9
:101FB0000191029503906946022008F018FF012163
:101FC000022009F008FA0121022008F069FE2560CC
:101FD0007FBD1FB501216A4611706422101A6A463E
:101FE00050703D48019003916946022008F0FFFEC1
:101FF0001FBD7FB5374C59202060162020608820F7
:102000002060372008F0DCF90221032009F029FACA
:1020100001206A4610706421517000259570D570BA
:102020002D490191029503906946032008F0DFFED7
:102030000121032009F0CFF90121032008F030FE2F
:1020400025607FBD1FB501216A4611706422101AF8
:102050006A4650702048019003916946032008F0B9
:10206000C6FE1FBD7FB51B4C592020601620206086
:1020700088202060352008F0A3F90221012009F012
:10208000F0F901206A4610706421517000259570A6
:10209000D5701149019102950390694608F0A7FE99
:1020A0000121084609F097F90121084608F0F8FDDA
:1020B00025607FBD1FB501216A4611706422101A88
:1020C0006A4650700448019003916946012008F067
:1020D0008EFE1FBD00010050D007000010B58AB071
:1020E0000B4C59202060162020608820206009F0C9
:1020F00022FA01A809F046FA002009F004FD05487B
:10210000016B082291430163002020600AB010BDDA
:1021100000010050008000401F4859210160162135
:102120000160882101601D490A6808231A430A607A
:1021300000210160704710B5174C5920206016200F
:102140002060882020600221002007F021FE072067
:102150000AF0B4F812480AF0CEF8002108460AF056
:1021600062F8002102200AF05EF8002107200AF040
:102170005AF80020206010BD10B5074C592020608F
:102180001620206088202060002106200AF04BF8ED
:102190000020206010BD0000000100500040004001
:1021A0001921000003E00221491E0029FCD1401E34
:1021B000F9D27047044A03E01146491E0029FCD1B8
:1021C000401EF9D2704700009D170000F8B5054683
:1021D0000F461646002472B6592135480160162173
:1021E0000160882101600AF069FB07E02046800059
:1021F000641CC01929680AF0E3FA2D1D761EF5D279
:102200000AF072FB2A480021016062B6F8BDF8B5F9
:1022100006460F461546002472B65921244801602F
:1022200016210160882101600AF048FB07E0204682
:102230008000641CC01931460AF0ECFA361D6D1E90
:10224000F5D20AF051FB1A480021016062B6F8BDD0
:10225000F8B506460D46002472B65920144F386072
:1022600016203860882038600AF028FB05E02046F8
:102270008000641C80190AF0F9FA6D1EF7D20AF08A
:1022800033FB0020386062B6F8BD10B5084C592009
:10229000206016202060882020600AF02BFB13218C
:1022A0003E2209030348FFF7B2FF0020206010BD63
:1022B000000100503C0B0020F8B5D54B7D22986AF8
:1022C0005201904200D29A62D249986A884200D95B
:1022D0009A62D149186B884200D21963CF481C6BAF
:1022E000844200D91963D86F0126012800D9DE671E
:1022F000C748C82480304568C82D00D244604B27A9
:102300004568FF00BD4200D944608468642C01D256
:1023100064248460FF2584683C35AC4201D9642480
:1023200084600468022C00D206600468022C00D984
:102330000660C4680025012C00D9C5605C68002CCB
:1023400000D05D60DC68022C00D9DD60B44C1F69F0
:10235000A74201D903241C61B24CC76AA74200D32B
:10236000C462B14CC76AA74201D8AE4CC4629C6932
:10237000012C00D99D61AA4CDF69A74200D9DD611B
:10238000A34B1B6A5B1C01D1A14B1D62A04CA74F44
:10239000C034636ABB4201D2A54B6362A54F636A36
:1023A000BB4201D9A24B6362A36A012B00D9A5628B
:1023B000076BFF23FF2F00D90363476BFF2F00D963
:1023C0004363876BFF2F00D98363C36B0F2B00D947
:1023D000C5632368012B00D926606368032B00D9ED
:1023E0006560A3680F2B00D9A560E3680F2B00D9A7
:1023F000E560874B9B6B102B01D3854B9D63836AF4
:10240000642B01D964238362874B07695B1E9F425B
:1024100000D3056187699F4200D38561C7699F42E8
:1024200000D3C561E069012800D9E561206A01286F
:1024300000D92562794BA7697F489F4200D9A061E6
:102440007D48A369834200D2A0617D23206B9B015C
:10245000984200D92163206B904200D22163774BD0
:10246000626B77489A4200D96063764B626B9A42FE
:1024700000D26063664FF86B884202D3A269904233
:1024800001D96948F863386C884202D3A269904246
:1024900001D96D483864786C884202D3A2699042B1
:1024A00001D96A487864B86C884202D3A269904224
:1024B00001D96748B864F86C884202D3A269904297
:1024C00001D96448F864386D884202D3A269904209
:1024D00001D957483865786D884202D3A269904285
:1024E00001D95D487865B86D884202D3A2699042EF
:1024F00001D95A48B865F86D884202D3A269904262
:1025000001D95748F865386E884202D3A2699042D3
:1025100001D954483866786E884202D3A269904245
:1025200001D951487866B86E884202D3A2699042B8
:1025300001D94E48B866F86E884202D3A26990422B
:1025400001D94B48F866386F884202D3A26990429D
:1025500001D948483867786F884202D3A26990420F
:1025600001D945487867B86F884202D3A16988428B
:1025700001D93148B867FF21153140480AF007FA00
:1025800014213F480AF003FA14213E480AF0FFF9EB
:10259000002002F07AFD0020FFF7DBFC3A4881685A
:1025A0001022914381600121022007F062FE032185
:1025B000022007F05EFE0721022007F03FFE022105
:1025C000084607F056FE002002F0BAF8012001F09C
:1025D000E8FD082000F05AF8002006F034FC7D6089
:1025E0007E6206F0A9FC002811D006F073FC0028DA
:1025F0000DD106F088FC002809D11620616AFFF78A
:10260000A7FB012000F042F80020FEF77FFBF8BD99
:102610003C0B0020E02E000070170000400D03006E
:10262000FF0F0000C027090010270000983A0000A3
:1026300060EA000080A90300007102007C15000020
:10264000AC0D0000DC050000204E000030750000DD
:10265000409C000050C30000701101008038010050
:10266000905F0100A0860100B0AD0100C0D4010060
:10267000D0FB0100E0220200F0490200040A002021
:10268000780300208C03002080400050FF494870F0
:102690007047FE480078704770B50021084607F083
:1026A000F6FD0021012007F0F2FD0021022007F0D5
:1026B000EEFD0621022007F0C1FD0F21012007F0E9
:1026C000BDFD0321002007F0B9FDF149012048625A
:1026D0000020FFF77EFC0020FFF7B4FC0020FFF78E
:1026E000E9FCFEF77FFBFEF7B6FB0020FFF731FCAD
:1026F0000121022007F0BDFD0321022007F0B9FDF2
:102700000221012007F0B5FD0721022007F0B1FDED
:10271000E04CA0681026B043A0600221084607F0F4
:10272000A8FD0021022007F089FD0020FEF71EFC15
:10273000D94D59202860162028608820286008F08C
:10274000EEF808F090FA002009F03DFF280309F0A8
:102750003AFF012009F055FC032009F052FC00204B
:1027600007F02EFE00221146012007F03DFD012159
:102770000022084607F038FD002007F0B4FB0020D7
:102780002860FFF713FA0020FFF7E3FB0121022086
:1027900007F06FFD0321022007F06BFD02210120ED
:1027A00007F067FD0721022007F048FDA068B0434D
:1027B000A0600221084607F05CFDB548C030416AC0
:1027C0001620FFF7C5FAFF21F5312820FFF7C0FAE0
:1027D000FF2191310F20FFF7BBFAFFF75AFF0128C5
:1027E00002D10720FFF752FF70BDA8494872704719
:1027F000A64988717047A5494871704700B5A74A36
:10280000A749D068884203D90120FFF7F4FF02E00E
:102810000020FFF7F0FF1921D0680902884203D297
:102820000120FFF7E5FF00BD0020FFF7E1FF00BD3D
:102830009648407870479648C0300069704708B5A0
:10284000934919228031496A0020120291420BD922
:102850007D20944BC000994206D2881A7D21C90080
:10286000484391490AF052F80A210AF04FF80A2128
:102870000AF04CF803000AF0D4F80A060F18212ACF
:10288000333C454E57608948009003230022402185
:102890003820FEF7CBF908BD8548009003230022BD
:1028A00040213820FEF7C2F908BD8248009003237A
:1028B000002240213820FEF7B9F908BD7E4800907B
:1028C0000323002240213820FEF7B0F908BD7B48E1
:1028D00000900323002240213820FEF7A7F908BD0D
:1028E000774800900323002240213820FEF79EF90C
:1028F00008BD744800900323002240213820FEF7D1
:1029000095F908BD7048009003230022402138202B
:10291000FEF78CF908BD6D4800900323002240218A
:102920003820FEF783F908BD694800900323002290
:1029300040213820FEF77AF908BD6648009003234D
:10294000002240213820FEF771F908BD5048C03000
:10295000406970474D48C06A70474D484069C0B2F1
:1029600070474B48C0300068C0B27047F0B585B0C2
:10297000002001903D20FFF7EFF9444D444E7D24A7
:1029800000272035C036E400002860D028780028D1
:1029900002D02F70FEF75FFA4320FFF7DDF9002821
:1029A0004FD1FF21F5314320FFF7D2F90120FEF787
:1029B0009BFA3D20FFF7D0F9474909F0A7FF474DA3
:1029C0000846294609F0A2FF2A214843444F012125
:1029D000C2190E20FEF70CF93D20FFF7BDF929467C
:1029E00009F094FF0846214609F090FF2A21484348
:1029F000C21901211C20FEF7FBF83A48009004237D
:102A0000032232212A20FEF711F9012336A20421E4
:102A10000A20FEF72CF900211120FFF799F9002177
:102A20001220FFF795F900211320FFF791F90021FB
:102A30001420FFF78DF9AF20FEF752FA0020FEF7C1
:102A400053FA1620716AFFF783F905B0F0BD2878B4
:102A5000002803D101202870FEF7FDF93B20FFF785
:102A60007BF90A4900287DD0C87D002802D0CF75A7
:102A7000FEF7F1F90120FEF737FA0549C86800288A
:102A800040D001285BD0022879D033E0AC0100208F
:102A90003C0B002080400050000100502803002023
:102AA000282300006C2000006C0700005AD70000AB
:102AB00042D700002AD7000012D70000FAD6000043
:102AC000E2D60000CAD60000B2D600009AD60000B6
:102AD00082D600006AD60000A08601001027000000
:102AE0000BEA00007AD700004C4F41442E2E2E0AEC
:102AF00000000000CF60AF20FEF7F2F90020FEF7E3
:102B0000F3F9A2E70523FFA201210D20FEF7AFF89C
:102B10000523FEA203210D20FEF7A9F8FD48009031
:102B20000323012206210020FEF780F8FA480090D6
:102B30000323012240213A20FEF778F8DBE7052342
:102B4000F6A201210D20FEF792F80523EFA2032142
:102B50000D20FEF78CF8EF48032301220621009098
:102B6000002001E018E00AE0FEF760F8EA48009073
:102B70000323012240213A20FEF758F8BBE7052342
:102B8000E8A201210320FEF772F803210523E7A242
:102B90000846FEF76CF8AEE7E648C07D002804D191
:102BA000E4490120C875FEF756F93C20FFF7D4F838
:102BB000002854D0DF48017E002902D00776FEF7B6
:102BC0004AF90120FEF790F90123DBA219460520FE
:102BD000FEF74DF8DB490869030009F022FF0627DC
:102BE000040B121920270523D7A203210720FEF783
:102BF0003EF81DE00523D6A203210D20FEF737F88D
:102C000016E00523D4A203210D20FEF730F80FE0D3
:102C10000523D3A203210D20FEF729F808E00523A0
:102C2000D1A203210720FEF722F801E0032008616A
:102C3000B84800900523032206210020FDF7F6FF87
:102C4000B54800900523032240213A20FDF7EEFF0E
:102C5000AF20FEF745F90020FEF746F9F5E6B54846
:102C6000007E002804D1B34901200876FEF7F3F86E
:102C70001E20FFF771F8002841D0AE48417E0029A0
:102C800002D04776FEF7E7F80120FEF72DF9FEF7B0
:102C900070F9B74C012804D0FEF76BF9002814D066
:102CA00026E004230022302110200094FDF7BEFF0F
:102CB0000023B0A204210120FDF7D9FF0023B0A218
:102CC00005210420FDF7D3FF12E004230022302168
:102CD00010200094FDF7AAFF0023A6A204210120E2
:102CE000FDF7C5FF0023A9A205210120FDF7BFFFC5
:102CF000AF20FEF7F5F80020FEF7F6F8A5E68D48C0
:102D0000407E002804D18B4901204876FEF7A3F8C5
:102D10002720FFF721F8002842D08648817E00292D
:102D200002D08776FEF797F80120FEF7DDF8FFF76F
:102D300018FE012804D0FFF714FE002815D028E063
:102D4000954800900423002230211020FDF76EFFEB
:102D5000002392A204210120FDF789FF0521002311
:102D600087A20846FDF783FF13E08F4800900423F5
:102D7000002230211020FDF759FF002387A20421F3
:102D80000120FDF774FF002380A205210120FDF73B
:102D90006EFFAF20FEF7A4F80020FEF7A5F854E67A
:102DA0006448807E002804D1624901208876FEF7BD
:102DB00052F83E20FEF7D0FF002830D05D48C17E9B
:102DC000002902D0C776FEF746F80120FEF78CF8FE
:102DD000B06A002809D0012814D0B762AF20FEF7EE
:102DE0007FF80020FEF780F82FE600236FA2012174
:102DF0000820FDF73CFF05236FA203210720FDF704
:102E000036FFEBE7002369A201210820FDF72FFF21
:102E100005236BA203210220FDF729FFDEE74548C9
:102E2000C07E002804D143490120C876FEF713F87C
:102E30003F20FEF791FF002862D03E48017F002925
:102E400002D00777FEF707F80120FEF74DF80023C0
:102E50005DA219460220FDF70AFF3A4F5D49386A24
:102E60005D4E5E4D88424CD3214609F04FFD5C49D2
:102E700009F04CFD08465B4909F048FD103014216B
:102E80004843421901210720FDF794FE2146386A84
:102E900009F03CFD534909F039FD0846214609F087
:102EA00035FD103014214843421901211120FDF74E
:102EB00081FE2146386A09F029FD214609F026FDE8
:102EC0000846642109F022FD1030142148434219BC
:102ED00001211B20FDF76EFE2146386A09F016FD20
:102EE000642109F013FD08460A2109F00FFD103096
:102EF00014214843421901212520FDF75BFE73E0B0
:102F000068E288E0574154540A0000004D4F4445A0
:102F10000A0000007CDB000088DB000054454D50B7
:102F20000A0000004D454D4F52590A00204D4F44B4
:102F300045200A00AC010020535452454E475448E6
:102F40000A0000003C0B0020204D494E200A0000E2
:102F5000534F46540A0000004E4F524D0A000000E5
:102F6000484152440A000000204D4158200A000008
:102F7000EACF0000424C5545544F4F54480A0000D8
:102F80002020204F4E202020200A00002020204F0B
:102F900046462020200A0000EAD000002020204CD5
:102FA00045442020200A00006AD1000053544541C6
:102FB0004C54480A00000000204F464620200A00DA
:102FC00020204F4E20200A002020544F44415920F9
:102FD000200A000080969800F6E1000083E50000DA
:102FE000A0860100102700002146386A09F08EFCF7
:102FF0000A2109F08BFC1031142041434A190121A8
:103000002F20FDF7D7FD032301224321392000960D
:10301000FDF70CFED1E0FF4988424ED3214609F06E
:1030200075FCFD4909F072FC0846214609F06EFC6A
:10303000103014214843421901210C20FDF7BAFD3C
:103040002146386A09F062FC214609F05FFC084617
:10305000642109F05BFC103014214843421901211E
:103060001620FDF7A7FD2146386A09F04FFC6421C0
:1030700009F04CFC08460A2109F048FC10301421E4
:103080004843421901212020FDF794FD2146386A6A
:1030900009F03CFC0A2109F039FC103114204143AD
:1030A0004A1901212A20FDF785FD032301223E2133
:1030B00034200096FDF7BAFD7FE0D84988423BD323
:1030C000214609F023FC214609F020FC0846642132
:1030D00009F01CFC10301421484342190121112031
:1030E000FDF768FD2146386A09F010FC642109F0FB
:1030F0000DFC08460A2109F009FC10301421484350
:10310000421901211B20FDF755FD2146386A09F0BF
:10311000FDFB0A2109F0FAFB1031142041434A1942
:1031200001212520FDF746FD0323012239212F200F
:103130000096FDF77BFD40E0B749884228D3214641
:1031400009F0E4FB642109F0E1FB08460A2109F0DB
:10315000DDFB103014214843421901211620FDF7F0
:1031600029FD2146386A09F0D1FB0A2109F0CEFB7E
:103170001031142041434A1901212020FDF71AFD86
:103180000323012234212A200096FDF74FFD14E08D
:10319000214609F0BBFB0A2109F0B8FB10311420CD
:1031A00041434A1901211B20FDF704FD032301229D
:1031B0002F2125200096FDF739FD002398A2032139
:1031C0000220FDF754FDFFF736FB934EB04251D37A
:1031D000FFF731FB914909F099FB0846314609F0A8
:1031E00095FB103014214843421904210720FDF7B4
:1031F000E1FCFFF720FB314609F088FB0846214639
:1032000009F084FB10301421484342190421112095
:10321000FDF7D0FCFFF70FFB214609F077FB0846CE
:10322000642109F073FB1030142148434219042132
:103230001B20FDF7BFFCFFF7FEFA642109F066FBD7
:1032400008460A2109F062FB103014214843421954
:1032500004212520FDF7AEFCFFF7EDFA0A2109F065
:1032600055FB1031142041434A1904212F20FDF74A
:10327000A1FCA8E0FFF7DFFAA04240D3FFF7DBFA9A
:10328000314609F043FB0846214609F03FFB103068
:1032900014214843421904210C20FDF78BFCFFF751
:1032A000CAFA214609F032FB0846642109F02EFBD8
:1032B000103014214843421904211620FDF77AFCEE
:1032C000FFF7B9FA642109F021FB08460A2109F049
:1032D0001DFB103014214843421904212020FDF722
:1032E00069FCFFF7A8FA0A2109F010FB103114203D
:1032F00041434A1904212A20FDF75CFC63E0FFF7F3
:103300009AFA64282FD3FFF796FA214609F0FEFABD
:103310000846642109F0FAFA103014214843421992
:1033200004211120FDF746FCFFF785FA642109F01E
:10333000EDFA08460A2109F0E9FA10301421484351
:10334000421904211B20FDF735FCFFF774FA0A210E
:1033500009F0DCFA1031142041434A1904212520D8
:10336000FDF728FC2FE0FFF766FA0A281ED3FFF7C7
:1033700062FA642109F0CAFA08460A2109F0C6FA7D
:10338000103014214843421904211620FDF712FC85
:10339000FFF751FA0A2109F0B9FA1031142041431C
:1033A0004A1904212020FDF705FC0CE0FFF743FA41
:1033B0000A2109F0ABFA1031142041434A190421C3
:1033C0001B20FDF7F7FBAF20FDF78AFD0020FDF77E
:1033D0008BFD43E41548007F002804D113490120E8
:1033E0000877FDF738FD3A20FEF7B6FC00287ED0BE
:1033F0000E48417F002902D04777FDF72CFD0120C0
:10340000FDF772FD0A49002008F07BF90423094DFD
:10341000022211E040420F0010270000A0860100A8
:103420002020505546465320200A0000AC010020C1
:10343000180B00205FDB000020211E200095FDF707
:10344000F5FB0423022231212F200095FDF7EEFB2E
:10345000FE4DFF49E86909F059FA0846264631460B
:1034600009F054FAFB4C00010019009004230222D9
:1034700009210120FDF7DAFB3146E86909F046FA37
:103480000846642109F042FA000100190090042363
:10349000022210210820FDF7C9FB6421E86909F028
:1034A00035FA08460A2109F031FA000100190090A6
:1034B0000423022217210F20FDF7B8FB0A21E86937
:1034C00009F024FA080100190090042302221E21A9
:1034D0001620FDF7ABFB6421A86909F017FA08462E
:1034E0000A2109F013FA00010019042300E037E073
:1034F0000090022228212020FDF798FB0A21A869CC
:1035000009F004FA080100190090042302222F2177
:103510002720FDF78BFB6421686909F0F7F908465D
:103520000A2109F0F3F90001001900900423022296
:1035300039213120FDF77AFB0A21686909F0E6F9A3
:103540000801001900900423022240213820FDF7D1
:103550006DFBAF20FDF7C4FC0020FDF7C5FC1EE4A9
:10356000BD48407F002804D1BB4901204877FDF7C2
:1035700072FC3920FEF7F0FB00285ED0B648817F50
:10358000002902D08777FDF766FC0120FDF7ACFC2F
:10359000AE49002008F0B5F8AC4C6421E06809F0B1
:1035A000B5F908460A2109F0B1F938214843AB4D75
:1035B00005234019009001220E210020FDF736FB63
:1035C0000A21E06809F0A2F9382041434819009027
:1035D000052301221C210E20FDF728FBA0480090A6
:1035E0000523012223211D20FDF720FB6421A06873
:1035F00009F08CF908460A2109F088F93821484376
:10360000401900900523012232212420FDF70EFBF2
:103610000A21A06809F07AF938204143481900903E
:103620000523012240213220FDF700FBAF20FDF7EA
:1036300057FC0020FDF758FCCBE68748807F002828
:1036400004D1854901208877FDF705FC0F20FEF79E
:1036500083FB00282CD08048C17F002902D0C77787
:10366000FDF7F9FB0120FDF73FFC042302220921AD
:103670000020FDF707FC0423022240213620FDF73D
:1036800001FC784800220090042340211046FDF7F9
:10369000CDFA754800900623042240210020FDF752
:1036A000C5FAAF20FDF71CFC0020FDF71DFC90E6DD
:1036B0006948C07F002804D167490120C877FDF719
:1036C000CAFB2D20FEF748FB002838D02D20FEF73E
:1036D00043FBA04233D26878002812D06F70FDF708
:1036E000BAFB00211120FEF733FB00211220FEF768
:1036F0002FFB00211320FEF72BFB00211420FEF7E7
:1037000027FB0120FDF7F0FB58480090042300221E
:1037100038210820FDF78AFA002355A2042105204C
:10372000FDF7A5FA002355A205210220FDF79FFA17
:10373000AF20FDF7D5FB0020FDF7D6FB49E6687802
:10374000002803D101206870FDF785FB1720FEF7E4
:1037500003FB002833D04048417D002905D0477540
:10376000AE20FDF7BDFBFDF776FBFFF7F6F800286E
:1037700010D10120FDF7B8FB43480090062300223A
:1037800038210820FDF752FAAF20FDF7A9FB0020F1
:10379000FDF7AAFBFFF7E1F8012888D1FDF7A4FBAC
:1037A0003A4800900623002230211020FDF73EFA0F
:1037B000AF20FDF795FB0020FDF796FB09E62648B4
:1037C000407D002804D1244901204875FDF743FBC2
:1037D0001820FEF7C1FA002818D01F48817D002963
:1037E00002D08775FDF737FB0120FDF77DFB2748E9
:1037F00000900623002230211020FDF717FAAF2099
:10380000FDF76EFB0020FDF76FFBE2E51248807DBF
:10381000002804D1104901208875FDF71CFB1220F7
:10382000FEF79AFA0949A431039100283BD1FF2100
:103830005F311220FEF78CFAB06A012830D00120E7
:10384000FDF752FB01482430C06821E0180B00202E
:1038500010270000EFD70000AC0100202FD9000096
:10386000AAD70000DACB0000DACC0000ACDB000005
:10387000202054454D502020200A000050524F5423
:1038800045435445440A0000DACD0000FACE00005A
:10389000002809D0FE49012852D002283DD04FE02F
:1038A000AE20FDF71DFBCBE1F9494868002802D0A6
:1038B000012804D044E0F748096B416340E0FEF77B
:1038C000B7FF05280AD0F448F24A00780102F3480D
:1038D0000078084364214843506331E00E20FEF72E
:1038E0003BFAEF49081A214609F010F8EA49085C4A
:1038F0000102E84841630E20FEF72EFAE849081A53
:10390000214609F003F8E549085CE249496B0843A0
:1039100064214843DF49486312E04868002802D028
:10392000012807D00CE0886B80004018C16BD94893
:10393000416305E0886B80004018C16BD548416346
:10394000D349C868002803D001287ED002284BD173
:10395000D048416BD348814247D3022300222F2114
:103960002A20FDF78FFA0323022238213220FDF7A7
:1039700089FAC848CC49406B08F0C8FF0846C949D5
:1039800008F0C4FF2A214843C849421800210846CC
:10399000FDF72EF9BF48C349406B08F0B7FF084652
:1039A000C34908F0B3FF2A214843C0494218002107
:1039B0000E20FDF71DF9B748BD49406B08F0A6FF82
:1039C0000846214608F0A2FF2A214843B749421879
:1039D00000211C20FDF70CF9B648009003230222B9
:1039E00032212A20FDF722F924E1032300221C21A1
:1039F0001A20FDF747FA0323002221211F20FDF79B
:103A000041FAAD480090032300221F211C20FDF73E
:103A10000DF9A048A649406B884206D20022032334
:103A20000E211046FDF72EFA0EE09E4908F06EFFBB
:103A300008469F4908F06AFF2A2148439B494218DB
:103A400000210846FDF7D4F800E02AE091489849A3
:103A5000406B08F05BFF0846214608F057FF2A211B
:103A600048439249421800210E20FDF7C1F88948C9
:103A70002146406B08F04AFF0846642108F046FFE3
:103A80002A2148438949421800212120FDF7B0F836
:103A9000884800900323022237212F20FDF7C6F823
:103AA000C8E04868002802D001287ED0C2E0C86F74
:103AB000002802D0012840D0BCE0FEF7B9FE05285E
:103AC00037D00398806802902146029808F01EFFC4
:103AD0000846642108F01AFF2A2148437349421816
:103AE00000210846FDF784F86421029808F00EFFD3
:103AF00008460A2108F00AFF2A2148436B49421868
:103B000000210E20FDF774F80A21029808F0FEFE4D
:103B10002A20414365480A1800211C20FDF768F857
:103B2000664800900323022236212A20FDF77EF802
:103B300080E0FEF70FFF0290C6E7FEF779FE05284A
:103B400039D00398406802902146029808F0DEFEC2
:103B50000846642108F0DAFE2A21484353494218F6
:103B600000210846FDF744F86421029808F0CEFED3
:103B700008460A2108F0CAFE2A2148434B49421848
:103B800000210E20FDF734F80A21029808F0BEFE4D
:103B90002A20414345480A1800211C20FDF728F837
:103BA000032302224648362100E008E000902A2044
:103BB000FDF73CF83EE0FEF7CDFE0290C4E7FEF7CD
:103BC00037FE052842D0FEF7C1FE0290214602983A
:103BD00008F09CFE0846642108F098FE2A2148431C
:103BE0003249421800210846FDF702F86421029884
:103BF00008F08CFE08460A2108F088FE2A21484376
:103C00002A49421800210E20FCF7F2FF0A210298EF
:103C100008F07CFE2A20414324480A1800211C2079
:103C2000FCF7E6FF264800900323022236212A20D3
:103C3000FCF7FCFFAF20FDF753F90020FDF754F926
:103C40001120FEF789F8002804D0C6E0FEF782FEB6
:103C50000290BBE764211120FEF77AF8B06A0128D0
:103C600030D00120FDF740F94220FEF775F800281A
:103C700073D0A878002806D0AF70052303221D2139
:103C80000020FDF7FFF8FEF7D3FD05281ED024E045
:103C90003C0B0020AC010020E8070020DC070020DE
:103CA000442F0000A086010040420F000BEA0000F4
:103CB0001027000072D7000063DB00008ED70000E1
:103CC00082D70000AE20FDF70BF986E00E20FEF74C
:103CD00043F8FF49091AFF4881630123FEA203212B
:103CE0000B20FCF7C4FFFB4DFC49A86B08F00EFE4F
:103CF0000846FB4908F00AFE10300A214843F94FF4
:103D00000321C2190020FCF737FFF549A86B08F022
:103D1000FDFD0846214608F0F9FD10300A21484310
:103D2000C21903210720FCF727FF2146A86B08F0E2
:103D3000EDFD0846642108F0E9FD10300A214843F2
:103D4000C21903210F20FCF717FF0123E6A203216C
:103D50001720FCF78CFF3AE0FFE7E44801690B000D
:103D600008F05FFE0631040D161F2831E048009070
:103D7000052303221D210020FCF758FF25E0DD4824
:103D80000090052303221D210020FCF74FFF1CE0BB
:103D9000D9480090052303221D210020FCF746FF8F
:103DA00013E0D6480090052303221D210020FCF7D4
:103DB0003DFF0AE0D2480090052303221D21002088
:103DC000FCF734FF01E0032101610120A870AF205E
:103DD000FDF786F80020FDF787F81320FDF7BCFFFC
:103DE000002822D1FF212D311320FDF7B1FFB06A49
:103DF000012817D00120FDF777F8FDF7BAF8012860
:103E000014D00223002236212E20FDF73BF8FEF7C6
:103E100016FDB64DE868002811D0012854D00228BC
:103E200043D143E0AE20FDF75BF8DEE0B5480090FB
:103E30000223002236212E20FCF7F8FEE7E7FEF7EA
:103E4000FAFC214608F062FD0846642108F05EFD98
:103E500010300A214843A34D032142192620FCF7C4
:103E60008BFEFEF7E8FC642108F050FD08460A21AD
:103E700008F04CFD10300A214843421903212D203F
:103E8000FCF77AFEFEF7D7FC0A2108F03FFD10315F
:103E90000A2041434A1903213420FCF76DFE012317
:103EA00099A203213B20FCF7E2FE98E0A86B2C21AD
:103EB000401C4843954905234018009003224021A7
:103EC0002A20FCF7B3FE8AE0854F686BB84243D3E3
:103ED00001238FA203212920FCF7C9FE01237EA222
:103EE00003213020FCF7C3FE7C49686B08F00EFD0F
:103EF0000846394608F00AFD10300A214843794F38
:103F00000321C2192520FCF737FE7549686B08F0BC
:103F1000FDFC0846214608F0F9FC10300A21484310
:103F2000C21903212C20FCF727FE2146686B08F0FC
:103F3000EDFC0846642108F0E9FC10300A214843F2
:103F4000C21903213420FCF717FE012371A20321BB
:103F50003B20FCF78CFE42E001235FA203212920D5
:103F6000FCF785FE01236AA203213020FCF77FFEC7
:103F70003946686B08F0CAFC0846214608F0C6FCC2
:103F800010300A214843574F0321C2192520FCF75E
:103F9000F3FD2146686B08F0B9FC0846642108F07F
:103FA000B5FC10300A214843C21903212D20FCF72B
:103FB000E3FD6421686B08F0A9FC08460A2108F0BB
:103FC000A5FC10300A214843C21903213420FCF714
:103FD000D3FD01234FA203213B20FCF748FEAF2075
:103FE000FCF77EFF0020FCF77FFF1420FDF7B4FEF6
:103FF000002800D009E4FA211420FDF7A9FEB06AD8
:1040000001280BD00120FCF76FFF384DE86800282D
:1040100009D001280BD0022810D104E0AE20FCF713
:104020005FFF05B0F0BD03988069019006E0FEF7E0
:10403000FFFB052874D0039880690190002326A215
:1040400005210420FCF713FE254E0198314608F0A7
:104050005DFC08462746394608F058FC10308100C0
:1040600040182D4C052102190020FCF767FD394648
:10407000019808F04BFC0846642108F047FC10301A
:1040800081004018021905210820FCF757FD642122
:10409000019808F03BFC08460A2108F037FC103074
:1040A00081004018021905210F20FCF747FD1B482D
:1040B0000090062305221D211620FCF7B7FDED6AAE
:1040C000002305A205212920FCF7D1FD314628E077
:1040D000442F0000AC0100202E0A0000A086010041
:1040E0001027000035E30000530A00003C0B0020BD
:1040F00058DF000092DF0000CCDF000006E0000087
:1041000040E000009AD70000500A00006CDC00007C
:10411000200A0000570A00000EE20000D4D7000079
:104120003BE0284608F0F2FB0846394608F0EEFB73
:10413000103081004018021905212520FCF7FEFCF3
:104140003946284608F0E2FB0846642108F0DEFB09
:10415000103081004018021905212D20FCF7EEFCDB
:104160006421284608F0D2FB08460A2108F0CEFB5D
:10417000103081004018021905213420FCF7DEFCC4
:104180000023FFA205213B20FCF771FDAF20FCF7C7
:10419000A7FE0020FCF7A8FE43E70398C069019042
:1041A0004CE7F849C8727047F648407A704770B5D6
:1041B0000024FFF7F9FF00285FD00221084606F02F
:1041C0003DF8FCF75CF8FCF771F8641C822CF8D31E
:1041D000ED480A21C569406906462C1A204608F0B8
:1041E00095FB0146E948704308F090FB1E2801D971
:1041F0001E3800E00020E34AD16E0B460F33984290
:1042000002D80F39884200D2D066E148D16E0161F0
:10421000002E01D100210161C82C02D3711BC829D5
:1042200001D2DC4901610020FEF7DFFA02210846D5
:1042300006F01FF80920FDF7B5FF1E211120FDF73C
:1042400087FD1E211220FDF783FD1E211320FDF79F
:104250007FFD1E211420FDF77BFD1E211F20FDF791
:1042600077FD1E212020FDF773FD96212120FDF70B
:104270006FFDC6492220FDF76BFD70BD10B52F20E4
:10428000FDF76AFD00280ED1C0492F20FDF760FD23
:10429000FFF78DFFBE48C04900693738884202D316
:1042A0000120FFF77EFF10BDB64908707047B54981
:1042B00088627047B349C8627047B248806A7047E5
:1042C000F0B589B0B14C2A202146FDF741FD2146C9
:1042D0004220FDF73DFDAE4DA86968612E4640368F
:1042E000AE4AB169AE48914200D9B061B16981422C
:1042F00000D2B061A64FA34C803FF868002807D0D9
:1043000001287ED002287DD00020F86009B0F0BDE1
:104310000121022005F092FF7868002810D00128C2
:1043200011D0002078603420FDF716FD002854D00D
:104330003869030008F075FB064F232E5139444FAE
:10434000386B6065EFE70E20FDF706FD9549081A0A
:104350008E4908F0DBFA9449085C000260650E2083
:10436000FDF7FAFC8F49081A884908F0CFFA8F49FF
:10437000085C616D0843642148436065D3E7616D63
:1043800008910801401A642108F0C0FA0899081A37
:10439000606522E0626D0A2050436421079208F0B4
:1043A000B5FA079A101A606517E0626D0A2050434B
:1043B0006421069208F0AAFA069A801860650CE05B
:1043C000616D05910801401A642108F09FFA059972
:1043D0004018606501E003203861B069616D884272
:1043E00000D2606568484068F8624043696908F037
:1043F0008DFA7863616D0A46FF3A2D3A904207D2F2
:1044000001E015E022E1226B5F2A01D2521C2263F7
:10441000FF312D31884204D9206B002801D0401E85
:1044200020632020FFF746FF206BFDF792FD6DE72C
:104430000121022005F002FF7868002816D001282B
:1044400029D0002078605048514F4068803FF86282
:10445000E9694043049108F059FA786339690B001F
:1044600008F0DFFA062E1F2225282B2EF86F0028D1
:1044700009D00128E7D16868A0654B21C9008842AE
:10448000E1D9A165DFE7A868A065FF213C3188423A
:10449000D9D9A165D7E7FEF759FAA0650120F867D9
:1044A000D1E7434921660FE0424921660CE04249C9
:1044B000216609E04149216606E04149216603E0A1
:1044C000334A0321803A1161E968012906D1304954
:1044D000803940004863206E400020660498AF6930
:1044E000B84201D2E76501E00498E0652868012838
:1044F0001AD002281BD001202860E06D2349C01B80
:104500004843216D08F002FA20494843394608F033
:10451000FDF91930FFF7CBFE1D4D803DE86F0028F7
:104520000AD001280CD015E0306B2065E5E7706BF0
:10453000FF30F5302065E0E7FFF7BFFE606609E079
:10454000FFF7BBFEE121C9004843104908F0DEF93E
:1045500020306066A26D616E91420CD2686B236E52
:10456000984208D2206B5F2801D2401C2063206B48
:10457000062800D9E064914249D92C2022E00000AD
:10458000560A0000AC01002028030020E8030000C8
:10459000BC0B00200F270000810B0000400D030022
:1045A00000710200442F0000E8070020DC07002013
:1045B00030750000409C000050C3000060EA00001D
:1045C00070110100FDF7C8FB002813D1A16D606ECA
:1045D000401A322804D900212C20FDF7B9FB04E051
:1045E0003221091A2C20FDF7B3FBE06C062801D913
:1045F000401EE064E16CA06C884201D2401CA064C3
:10460000A06C884201D9401EA064A06C2063A16DFB
:10461000606E884212D9A06E401CA066052811D990
:104620000846FFF747FE2D20FDF796FB002809D12D
:104630007D2109012D20FDF78BFB03E0FFF73AFEFA
:104640000020A066206BFDF784FC5FE601210220BC
:1046500005F0F4FD7868002810D0012814D000205F
:1046600078603420FDF778FB002841D038690300DA
:1046700008F0D7F9063C101B3E26313CB86B800091
:10468000C019C06B6065ECE7B86B8000C019C06BE7
:104690006065E6E7616D03910801401A642108F046
:1046A00035F90399081A606522E0626D0A205043CB
:1046B0006421029208F02AF9029A101A606517E044
:1046C000626D0A2050436421019208F01FF9019A9B
:1046D000801860650CE0616D00910801401A64214A
:1046E00008F014F900994018606501E00320386172
:1046F000B069616D884200D26065FD484068F8622B
:104700004043696908F002F97863616D0A46FF3A2F
:104710002D3A904204D2226B5F2A01D2521C2263AE
:10472000FF312D31884204D9206B002801D0401E72
:1047300020632020FFF7BEFD206BFDF70AFCE5E5B6
:10474000EC49C870704770B5E94D0A21E86A4843E2
:104750006A2108F0DBF87D210446C90048430A219C
:1047600008F0D4F86A680146101B8722D200504333
:1047700008F0CCF80028DF4A116F0B460F3398423F
:1047800002D80F39884200D21067DB48116FC1612F
:1047900070BDD84880797047D648C0787047FEB55C
:1047A0000027D548D44C4030C069803C002804D153
:1047B000E068012801D10020E060FEF7CEF8CF4D7F
:1047C000102601280ED0FFF7E7FF002817D00020A1
:1047D000FDF7BFFBA868B043A8600121022005F0E7
:1047E00048FDFEBD0020FDF7B4FBA868B043A860FB
:1047F0000121022005F03DFDFEF7B8F8FEBDFFF7F0
:10480000C8FF00282CD0A868B043A8600120FCF79E
:104810006BFBFCF724F9FCF71EFBB948009003235F
:10482000012230211020FCF701FA0023B5A2032158
:104830000220FCF71CFA0023B5A204210220FCF799
:1048400016FA0322B549002007F093FFAF20FCF7CA
:1048500047FB0120FFF774FF0020FCF784FBFEBD3F
:10486000A348C168AE48814231D2A249C86B401CFE
:10487000C863FF21F53188422CD9A868B043A860ED
:104880000120FCF731FBFCF7EAF8FCF7E4FA9C485E
:1048900000900323012230211020FCF7C7F90023E8
:1048A00098A203210220FCF7E2F9002398A2042138
:1048B0000220FCF7DCF903229A49002007F059FF97
:1048C000AF20FCF70DFB0120FFF73AFFFEBD894941
:1048D0000020C86386480021406A05F091F95528F8
:1048E0002DD9A868B043A8600120FCF7FDFAFCF7B9
:1048F000B6F8FCF7B0FA8C480090042302223A2163
:104900002220FCF793F9002388A202210820FCF75B
:10491000AEF9002387A203210820FCF7A8F903229F
:104920008649002007F025FFAF20FCF7D9FA0120C7
:10493000FFF706FF82493D20FDF70AFAFEBDFDF7AD
:1049400010F9002829D0A868B043A8600120FCF71E
:10495000CBFAFCF784F8FCF77EFA7A48009005233E
:10496000022214210020FCF761F90023764A02217B
:104970001C20FCF77CF9002374A203211C20FCF707
:1049800076F903227349002007F0F3FEAF20FCF70D
:10499000A7FA0120FFF7D4FEFEBDE068564C0028C0
:1049A00001D0022834D12169642931D2A868B043EA
:1049B000A8600120FCF798FAFCF751F80120FFF7F6
:1049C000F0FB0020A061FCF746FA63480090022348
:1049D000002230211020FCF729F95A4800900623C4
:1049E000032214210020FCF721F900235BA20321FC
:1049F0001820FCF73CF900235BA204211820FCF7E7
:104A000036F9AF20FCF76CFA0120FFF799FEFEBDE6
:104A1000012834D12069372831D2A868B043A86072
:104A20000120FCF761FAFCF71AF80120FFF7B9FB47
:104A30000020A061FCF70FFA4748009002230022F3
:104A400030211020FCF7F2F83E48009006230322A4
:104A500014210020FCF7EAF8002340A203211820CB
:104A6000FCF705F9002340A204211820FCF7FFF809
:104A7000AF20FCF735FA0120FFF762FEFEBD3C498E
:104A8000206988427DD23B4A90427AD9A868B043D7
:104A9000A8600120FCF728FAFBF7E1FF0120FFF7EF
:104AA00080FB0020A061FCF7D6F92B480090022380
:104AB000002230211020FCF7B9F82248009006238C
:104AC000032214210020FCF7B1F8002323A20321C4
:104AD0001820FCF7CCF8002327A204211820FCF7AB
:104AE000C6F8AF20FCF7FCF90120FFF729FEFEBD58
:104AF00028030020AC010020BC0B002080400050A7
:104B000076E100002020204C4F572020200A000092
:104B10002042415454455259200A0000AFEB000096
:104B200088130000B5EB0000BACF0000544F4F0AC5
:104B300000000000484F540A00000000C1EB0000D4
:104B400030750000BAE00000682F0000505546465E
:104B5000530A0000BEEB0000F6E000004F484D2075
:104B6000544F4F0A000000004C4F570A000000004D
:104B70000F270000B80B0000484947480A00000012
:104B8000FFE788422DD3A868B043A8600120FCF756
:104B9000ABF9FBF764FF0120FFF703FB0020A061E6
:104BA000FCF759F90023FFA203210820FCF75FF866
:104BB0000023FFA204210520FCF759F8FF480090CC
:104BC0000223002230211020FCF730F8AF20FCF740
:104BD00087F90120FFF7B4FDFF209130FDF7EAFAD5
:104BE000FEBD17213838C90188420BD2A069372889
:104BF00008D2A868B043A8600120FFF7D2FA0020CD
:104C0000A061FEBDFFF7C5FD002835D1EC487D2130
:104C1000C068490188422CD2EA49086C401C0864EB
:104C2000FF21F531884227D9A868B043A860012048
:104C3000FCF75AF9FBF713FFFCF70DF9E248009077
:104C40000323012230211020FBF7F0FF0023DFA215
:104C500004210220FCF70BF80023DF4A0521022083
:104C6000FCF705F8AF20FCF73BF90120FFF768FDE2
:104C7000FEBDD449002008642220FDF76DF800280D
:104C800032D0D049002048643320FDF765F8002871
:104C900071D0A868B043A8600120FCF725F9FBF7A4
:104CA000DEFEFCF7D8F8CD48009004230122402115
:104CB0002C20FBF7BBFF0023C9A202211846FBF7FB
:104CC000D6FF0023C8A203211846FBF7D0FF00231C
:104CD000C7A204211846FBF7CAFFAF20FCF700F972
:104CE0000120FFF72DFDFEBDE069029032283DD97D
:104CF000A16901910521019807F008FE0199411869
:104D0000029881422ED9BD48C0680128BCD1AD4966
:104D1000486C401C4864FF21F5318842B4D9A8682A
:104D2000B043A8600120FCF7DFF8FBF798FEFCF722
:104D300092F80523B2A201210320FBF798FF03217B
:104D40000523B14A0846FBF792FFAF20FCF7C8F8ED
:104D50000120FFF7F5FC0720FDF798FCA74900208C
:104D6000C860FEBD9749002048648DE79549002042
:104D7000486489E7FFE72020FCF7EEFF002840D1D8
:104D80009E48C16801293CD0406BA049884238D96F
:104D9000FBF775FA7F1C052FFAD38948E12140699A
:104DA000C90088422DD2A868B043A8600120FCF752
:104DB0009BF8FBF754FEFCF74EF895480090022351
:104DC000002230211020FBF731FF002391A20321A4
:104DD0000920FBF74CFF002375A204210520FBF7F7
:104DE00046FF03228E49002007F0C3FCAF20FCF7EA
:104DF00077F80120FFF7A4FC8A493320FCF7A8FFCD
:104E0000FEBD2120FCF7A8FF002832D1FFF79BFC54
:104E1000E06932282DD2A868B043A8600120FCF7D1
:104E200063F8FBF71CFEFCF716F8794800900223A4
:104E3000002230211020FBF7F9FE00237AA2032183
:104E40000920FBF714FF002359A204210520FBF7DA
:104E50000EFF03227249002007F08BFCAF20FCF705
:104E60003FF80120FFF76CFC6E493320FCF770FF20
:104E7000FEBDFFF725FAFDF779FDFEBD5148C07A6A
:104E8000704710B55D4A6B498032106937388842E7
:104E900017D2FFF7F3FF002813D00020FFF781F9A6
:104EA0009069116902461E32914202D81E38814231
:104EB00007D20420FDF7EAFBFBF7CDFF41490120B3
:104EC000087310BD3F488078704738B53D480024CE
:104ED000017B002902D00473FBF7BDFF0120FCF722
:104EE00003F80021052354A20846FBF7C0FE052362
:104EF00053A202210020FBF7BAFE052352A204218F
:104F00000A20FBF7B4FE052350A204212C20FBF756
:104F1000AEFE4F4806230090042219460020FBF7FE
:104F200085FE4C4800900623042240213A20FBF7DE
:104F30007DFEFFF7C7FF484D002802D0012817D19A
:104F400017E004F058FE002812D0002004F004F806
:104F5000424800900623042240213A20FBF766FED7
:104F60002846FDF727F9FBF776FF0720FDF78EFBB4
:104F700084E004F040FE002813D0002003F0ECFF92
:104F80001E49803108698861354A904200D38C619E
:104F900088690862334806230422009019460020DD
:104FA00062E06BE020434845434B20200A000000AC
:104FB00041544F4D495A45520A000000F6E00000A6
:104FC00028030020AC0100207AE0000020204348A4
:104FD00045434B20200A0000104B0000BAE00000BF
:104FE000444F4E27540A000041425553450A0000E1
:104FF00050524F5445435453210A00003C0B0020AB
:105000002057415454200A002C2F000060EA000071
:1050100036E100002D53484F52542D200A00000065
:10502000B2EB0000881300002053484F5254202058
:105030000A000000810B00004953204E45570A002A
:10504000434F494C3F200A00590A00004E0A000015
:105050007CDB000088DB0000DC050000A0DB00003A
:105060000F27000094DB0000FBF7E0FD2846FDF76A
:10507000A1F8FBF7F0FE0720FDF708FBAF20FBF7D8
:105080002FFF0020FBF730FF38BDFF490860704755
:10509000FE4988727047FD48807A704710B5132426
:1050A000240304212046FDF7D3F83E222146F6488A
:1050B000FDF78CF810BDF5498870704710B58AB0BF
:1050C000F248002444738473C4730474447401204C
:1050D000FBF70AFFFBF7BFFEEB48C030416A162022
:1050E000FCF736FEEA490D20FCF732FE002004F002
:1050F0000AF9002004F00AF90020FFF7C6FF00209B
:10510000FFF7D9FFFBF73DFCFFF7C8FFAE20FBF729
:10511000E7FE0720FDF7BAFAFFF7BDFF002820D011
:105120000020FFF7B5FF0120694608714C71D9488E
:105130004169029101690391C168049105948168F4
:105140000691416807910068089008A90C7101A9AF
:10515000002006F0CBFB002803D001A9002006F0B8
:10516000C5FB0AB010BDF8B504460D4616461F46ED
:105170003520FCF7F1FD64280BD90120FBF7B4FEC4
:10518000C54800903B46324629462046FBF74EFD77
:10519000F8BD0120FBF7A8FEC04800903B46324610
:1051A00029462046FBF742FDF8BDF8B504460D46FA
:1051B00016461F463620FCF7CFFD64280BD9012088
:1051C000FBF792FEB64800903B4632462946204601
:1051D000FBF72CFDF8BD0120FBF786FEB1480090DF
:1051E0003B46324629462046FBF720FDF8BD38B540
:1051F00003F0B5FE002809D003F0B1FE01282CD041
:10520000FFF75CFFAF20FBF76BFE38BD04F0EAFC54
:105210000028F7D0002003F09CFE0120FBF764FE7D
:10522000FBF719FEA0480090042300223021102033
:10523000FBF7FCFC00239DA205210A20FBF717FDCC
:1052400000239BA205210F20FBF711FD002399A24B
:1052500005211420FBF70BFDD4E704F0C6FC002861
:1052600032D0002003F07EFE0120FBF73DFE192422
:10527000640121460720FCF76BFD21460820FCF75E
:1052800067FDFF242D34204603F060FE204603F026
:105290005AFE04F0ADFC00257B4C002803D104F03D
:1052A000AAFC00280AD0002004F036F8002003F001
:1052B00053FE606A012814D001206062606A0028F1
:1052C00011D0012822D06562052303220621002087
:1052D000FFF76BFF0523032240213A20FFF743FF2E
:1052E00090E76562EAE7062303223A211846FBF7B6
:1052F000C9FD05236FA201210720FBF7B8FC052398
:105300006EA203210720FBF7B2FCDDE70623032290
:105310003A211846FBF7B6FD052366A201210720B6
:10532000FBF7A5FC052367A203210220FBF79FFCE6
:10533000CAE770B50C4611461A46049B092814D0DA
:105340000A2812D0632810D064280ED05F4DA842DE
:105350000BD06D1CA84208D05D4DA84205D06D1C35
:10536000A84202D05B4DA84202D12046FBF78AFD3D
:1053700070BDF8B504F03CFC0026444D002809D06F
:10538000002003F0C9FF687C401CC0B26874042888
:1053900000D96E7404F02FFC3E4C00285DD0002034
:1053A00003F0DAFDFFF78EFD002802D0012854D16A
:1053B00029E00120FFF76CFE687C030007F031FB59
:1053C00005040B11171D4D0043492068884244D243
:1053D000401C206041E060680C283ED2401C6060A8
:1053E0003BE0A0681F2838D2401CA06035E0E06890
:1053F000172832D2401CE0602FE020693B282CD2D5
:10540000401C206129E00120FFF742FE687C030078
:1054100007F007FB05040C12181E23007D212068ED
:105420000901884219D9401E206016E060680128F1
:1054300013D9401E606010E0A06801280DD9401EFD
:10544000A0600AE0E068002807D0401EE06004E0A9
:105450002069012801D9401E206104F0C6FB002804
:105460007ED0002003F07EFD66611C4E03230122E6
:1054700020211E200096FBF7D9FB032301223121B6
:105480002F2000962CE000003C0B0020AC010020F7
:10549000442F0000340C0020A0DB000088DB00005B
:1054A00094DB00007CDB0000EAD50000360A000037
:1054B0002E0A0000504F5745520A0000204F464622
:1054C000200A000020204F4E200A0000E7030000C1
:1054D0000F2700009F860100330800005FDB0000FB
:1054E000FBF7A4FBFD49206807F010FA7D2708466A
:1054F000FF00394607F00AFAF94E0001801901222F
:105500000090032309211046FBF790FB39462068E1
:1055100007F0FCF90846642107F0F8F9000180194A
:1055200000900323012210210820FBF77FFB642158
:10553000206807F0EBF908460A2107F0E7F90001B7
:10554000801900900323012217210F20FBF76EFB27
:105550000A21206807F0DAF908018019032300E026
:10556000ACE0009001221E211620FBF75FFB6421B6
:10557000606807F0CBF908460A2107F0C7F9000177
:10558000801900900323012228212020FBF74EFBE5
:105590000A21606807F0BAF9080180190090032316
:1055A00001222F212720FBF741FB6421A06807F08F
:1055B000ADF908460A2107F0A9F900018019009009
:1055C0000323012239213120FBF730FB0A21A06897
:1055D00007F09CF908018019009003230122402163
:1055E0003820FBF723FB6421E06807F08FF90846B9
:1055F0000A2107F08BF9000180190090052303228E
:1056000015210D20FBF712FB0A21E06807F07EF957
:10561000080180190090052303221D211520FBF7A6
:1056200005FBB04800900523032225211D20FBF730
:10563000FDFA6421206907F069F908460A2107F09C
:1056400065F9000180190090052303222D212520F2
:10565000FBF7ECFA0A21206907F058F908018019D4
:1056600000900523032235212D20FBF7DFFA687C0B
:105670009D4D030007F0D5F9050423426180220007
:105680006421206807F042F908460A2107F03EF934
:105690000001401900900323012217210F20FBF77E
:1056A000C5FA0A21206807F031F908014019009075
:1056B000032301221E211620FBF7B8FAF8BD64214E
:1056C000606807F023F908460A2107F01FF9000176
:1056D000401900900323012228212020FBF7A6FA7D
:1056E0000A21606807F012F90801401900900323AD
:1056F00001222F212720FBF799FAF8BD6421A06829
:1057000007F004F908460A2107F000F900014019E2
:1057100000900323012239213120FBF787FA0A2167
:10572000A06807F0F3F80801401900900323012254
:1057300040213820FBF77AFAF8BD6421E06807F0D1
:10574000E5F808460A2107F0E1F800014019009049
:105750000523032215210D20FBF768FA0A21E068D2
:1057600007F0D4F8080140190090052303221D21F9
:105770001520FBF75BFAF8BD6421206907F0C6F835
:1057800008460A2107F0C2F80001401900900523DD
:1057900003222D212520FBF749FA0A21206907F071
:1057A000B5F80801401900900523032235212D206A
:1057B000FBF73CFAF8BDF0B58BB003F0D0FB002648
:1057C0004A4C002814D003F0CAFB012838D003F05B
:1057D000C6FB474F474D02287ED003F0C0FB03288D
:1057E0007BD0FFF76BFCAF20FBF77AFB0BB0F0BD73
:1057F00004F0F8F9002821D0002003F0AAFB0120D2
:10580000FBF772FBFBF727FB3B48009004230022C9
:1058100030211020FBF70AFA002338A205210320CB
:10582000FBF725FA002336A205210820FBF71FFA13
:10583000002334A205210D20FBF719FAA673D2E745
:10584000FFF740FB002802D001282CD115E004F01E
:10585000CFF9002803D104F0CEF9002823D000208E
:1058600003F05AFD002003F077FBA07B052802D24D
:10587000401CA07317E0A67315E004F0B9F90028E6
:1058800003D104F0B8F900280DD0002003F044FD46
:10589000002003F061FBA07B002802D0401EA07313
:1058A00001E00520A07304F0A0F900289BD000209F
:1058B00003F058FB0120FBF717FBFBF7CCFA192587
:1058C0006D0129460720FCF743FA29460820FCF71A
:1058D0003FFAFF252D351BE0DCE0E5E31027000053
:1058E000EFD700006CDB00008FD80000AC01002077
:1058F00083E50000FC0B0020EAD20000350A00001E
:105900002E0A000053455454494E470A0000000037
:10591000284603F01BFB284603F015FBA07B030081
:1059200007F07FF80605203B56829D045BE7FD48A3
:1059300000900423002230211020FBF777F9002388
:10594000F9A205211846FBF792F905210023F7A2D9
:105950000846FBF78CF90023F5A205210A20FBF786
:1059600086F940E7F54800900423002230211020FA
:10597000FBF75CF90023F2A205211846FBF777F943
:1059800005210023E9A20846FBF771F90023EDA2E7
:1059900005210A20FBF76BF925E7ED480090042369
:1059A000002230211020FBF741F90023E9A2052154
:1059B0000420FBF75CF90023DCA205210920FBF79A
:1059C00056F90023E4A205210E20FBF750F90AE75F
:1059D000E44800900423002230211020FBF726F930
:1059E0000023E1A205210E20FBF741F90023CFA2FD
:1059F00005211320FBF73BF90023CEA20521182037
:105A0000FBF735F902A9002005F07BFED74809997C
:105A1000016008994160079981600599C160049906
:105A2000016103994161DEE6D14800900423002220
:105A300030211020FBF7FAF80023CEA20521042024
:105A4000FBF715F90023B9A205210920FBF70FF98F
:105A50000023C9A205210E20FBF709F9C3E6C948B6
:105A600000900423002230211020FBF7DFF80023F0
:105A7000C5A205211846FBF7FAF805210023ABA2C1
:105A80000846FBF7F4F80023C0A205210A20FBF723
:105A9000EEF8A8E6C048B54C807B783C030006F0E1
:105AA000C0FF060565FDFCFBFA049CE604F0A0F8C7
:105AB000002803D104F09FF8002809D0002003F04B
:105AC0002BFC002003F048FAA86A00282FD0AE6211
:105AD00004F08BF800281DD0002003F043FA0120C9
